:100000000C942A000C9447000C9447000C94470071
:100010000C9447000C9447000C9447000C94470044
:100020000C9447000C9447000C94890A0C94600AC5
:100030000C9447000C9447000C9447000C94470024
:100040000C9447000C9447000C9447000C94470014
:100050000C94470011241FBECFE5D8E0DEBFCDBF12
:1000600012E0A0E6B0E0E6E2F1E302C005900D92F6
:10007000AC30B107D9F712E0ACE0B2E001C01D929C
:10008000A031B107E1F70E9469000C9416180C9496
:100090000000CF93DF93FC01EB014423B1F090818A
:1000A0008881981781F4DF01FB0120E008C01196D8
:1000B0009C911197818111963196981721F42F5FA9
:1000C0002417A8F302C080E001C081E0DF91CF9146
:1000D00008952F923F924F925F926F927F928F92EC
:1000E0009F92AF92BF92CF92DF92EF92FF920F93C7
:1000F0001F93DF93CF93CDB7DEB76B970FB6F8940E
:10010000DEBF0FBECDBF19820E9449050E94B0021A
:1001100085E090E0BE016F5F7F4F0E947C0980E127
:1001200090E09B878A871D8A1C8A84E090E0998BE7
:10013000888B88E090E09F878E871B8A1A8A81E0EF
:1001400090E09D878C8780E490E09F8B8E8BCE0122
:100150000A960E94BA0989818F3F09F0AEC00F2E1E
:10016000F0E6AF2EF0E0BF2EF02D0F2EFFE68F2E23
:10017000F0E09F2EF02D0F2EF0E26F2EFEE47F2E8A
:10018000F02D0F2EF8ECCF2EDD24F02D0F2EF6E7FC
:100190004F2EF0E05F2EF02D0F2EF6E82F2EF0E020
:1001A0003F2EF02DC5010E94E30482E061E00E9431
:1001B0001105C4010E94E304C301F6013197F1F770
:1001C0000197D9F70E94090581E061E00E941105BD
:1001D000C2010E94E30482E061E00E941105C101B6
:1001E0000E94E30480E197E2F6013197F1F701976D
:1001F000D9F70E94090581E061E00E9411058BE8B2
:1002000090E00E94E30482E061E00E94110588E929
:1002100090E00E94E304EE24FF246894E1F8EC0EE1
:10022000FD1E06E00E942A02182F8823D9F382E0DF
:10023000602F0E941105812F0E941803F70110837F
:1002400020ED37E0C6010197F1F721503040D1F79A
:1002500082E0602F0E9411058AE20E941803089430
:10026000E11CF11C093011F00F5FDCCF80E090E061
:1002700064E0AE014E5F5F4F0E945A0985E090E056
:1002800060E00E944E090E9409058EE990E00E94FC
:10029000E30480E197E2F6013197F1F70197D9F78E
:1002A0000E94090585E090E0BE016F5F7F4F0E94CC
:1002B0007C0989818F3F09F475CF0F2EF6E09F2EC0
:1002C000F02D0F2EF3E0AF2EF02DBB240F2EFDEA04
:1002D0006F2EF0E07F2EF02D0F2EF8E94F2EF0E07C
:1002E0005F2EF02D22243324689421F82C0E3D1E1D
:1002F00008EC10E0CE0106969B8F8A8FCE01069601
:10030000888F998F0F2EF6E08F2EF02D6EC081E032
:1003100061E00E941105C3010E94E30482E061E0F4
:100320000E941105C2010E94E3046101E92C0E94B0
:100330002A02F82E8823D9F382E06E2D0E9411053F
:100340008F2D0E94180320ED37E0C8010197F1F7C7
:1003500021503040D1F782E06E2D0E9411058AE2D3
:100360000E941803F601F1926F01E3948A8D9B8D30
:10037000E817F907E1F694E0990E80E090E064E078
:10038000488D598D0E948D09C101688D798D44E099
:100390000E944900813059F40E94090581E061E022
:1003A0000E9411058CEB90E00E94E30426C00E949D
:1003B000090581E061E00E94110586EC90E00E9451
:1003C000E30482E061E00E94110587ED90E00E9465
:1003D000E30420E137E2C8010197F1F721503040F2
:1003E000D1F70E940905AA94982C1A141CF4BB207A
:1003F00009F48DCFE1E0BE1669F481E00E94130A92
:100400000E942A028334E1F780E00E94130ABB2491
:10041000B394EBCF0E94090581E061E00E941105D1
:1004200082EE90E00E94E30482E061E00E94110508
:1004300080EF90E00E94E3042FEF3FEFC8010197A7
:10044000F1F721503040D1F70F2EF3E0AF2EF02D11
:10045000BB24CBCF8F929F92AF92BF92DF92EF924D
:10046000FF920F931F93CF93DF93DD24C0E0D0E082
:100470000F2EF4EFAF2EF1E0BF2EF02D08EC10E0C0
:100480000F2EFCEF8F2EF0E09F2EF02DEE246894BF
:10049000E2F8EC0E83E06E2D40E00E94110683E04E
:1004A00060E00E941F07882311F4FF241DC083E031
:1004B00061E00E941F07882319F4FF24F39414C0FD
:1004C00083E062E00E941F07882321F4FF246894E0
:1004D000F1F80AC083E063E00E941F07882349F512
:1004E0000F2EF3E0FF2EF02D9501C8010197F1F7D3
:1004F00021503040D1F783E06F2D0E941F078823E1
:1005000061F48F2D90E0880F991F880F991F8C0F31
:100510009D1FF401E80FF91FD08083E06F2D0E942A
:100520001F07882331F483E06F2D0E941F07882363
:10053000D1F383E06E2D41E00E9411062196C43074
:10054000D10509F0A3CF8D2DDF91CF911F910F9190
:10055000FF90EF90DF90BF90AF909F908F900895A5
:1005600083E060E040E00E94830583E061E040E0DA
:100570000E94830583E062E040E00E94830583E0FF
:1005800063E040E00E94830583E060E041E00E9478
:10059000110683E061E041E00E94110683E062E021
:1005A00041E00E94110683E063E041E00E941106F1
:1005B00083E064E041E00E94830583E065E041E080
:1005C0000E94830583E066E041E00E94830583E0AA
:1005D00067E041E00E94830583E064E041E00E941F
:1005E000110683E065E041E00E94110683E066E0C9
:1005F00041E00E94110683E067E041E00E9411069D
:1006000008950F931F9381E062E041E00E9411067C
:1006100000ED17E0C8010197F1F781E062E040E0EA
:100620000E941106C8010197F1F71F910F910895DB
:10063000682F80E00E94ED0681E060E041E00E94CA
:10064000110681E061E040E00E9411060E94010372
:1006500008952F923F924F925F926F927F928F9266
:100660009F92AF92BF92CF92DF92EF92FF920F9341
:100670001F93DF93CF93CDB7DEB72A970FB6F894C9
:10068000DEBF0FBECDBF2A833B834C835D836E8369
:100690007F8388879987822F832B842B852B862BBA
:1006A000872B7885872B892B21F480E30E94180300
:1006B00071C188248394552422241A863324442427
:1006C000662477249924282D352D422D5A85632DB3
:1006D000742D862D972D01E00E94B20A122FF32E61
:1006E000E42ED52EC62EB72EA82E892E02E00E940B
:1006F000B20AA92F412E420EE1E0411608F0E92D81
:100700003F0D21E03F1508F0292DFE2FF30FE1E00A
:10071000F31708F0E92D2E2B3F2F4E0DE1E04E157B
:1007200008F0E92DF22FF40F21E0F41708F0292D3D
:10073000E22B4F2F5D0D21E05D1508F0292DFE2FD6
:10074000F50FE1E0F51708F0E92D2E2B5F2F6C0D6A
:10075000E1E06C1508F0E92DF22FF60F21E0F61715
:1007600008F0292DE22B6F2F7B0D21E07B1508F07F
:10077000292DFE2FF70FE1E0F71708F0E92D2E2BBA
:100780007F2F8A0D91E08A1508F0992DE22FE80F4E
:1007900021E0E81708F0292D922B882D8A0F832E4F
:1007A000742E652E562E372E2E2E980F99832A8161
:1007B0003B814C815D816E817F81888599850F2E7B
:1007C000FAE0AF2EF02DB92CC92CD92CE92CF92C3C
:1007D000092D192D0E94A611A42F052FF62EE72E04
:1007E000122F140DE1E0121708F0E92DB32FB80D08
:1007F00021E0B31708F0292DFE2FFB0FE1E0FB17D6
:1008000008F0E92D2E2BBF2F4A2F470DE1E04A17A4
:1008100008F0E92DF22FF40F21E0F41708F0292D4C
:10082000E22B4F2F502F560D21E0501708F0292DA5
:10083000FE2FF50FE1E0F51708F0E92D2E2B5F2FC5
:100840006F2D650DE1E06F1508F0E92DF22FF60F21
:1008500021E0F61708F0292DE22B6F2F7E2D730D66
:10086000F1E07E1508F0F92DE70F21E0E71708F019
:10087000292DF22B7E2F282F220DA1E0281708F01A
:10088000A92D3F2F320FE1E0321708F0E92DAE2BF2
:100890008981890F812E5B2E242E5A87362E472E72
:1008A000632E7A2E780E2A813B814C815D816E8188
:1008B0007F81888599850F2EFAE0AF2EF02DB92C17
:1008C000C92CD92CE92CF92C092D192D0E94310B9A
:1008D0002A833B834C835D836E837F8388879987DC
:1008E000822F832B842B852B862B872B9885892B16
:1008F000E9858E2B09F0E7CE2A85F1E08F1671F499
:10090000552061F4222051F4222341F4332031F4A4
:10091000442021F4662011F47720E1F1282D352DB3
:10092000422D5A85632D742D862D972D0F2EFAE0BA
:10093000AF2EF02DBB24CC24DD24EE24FF2400E0D8
:1009400010E00E94A611822F805D0E941803282DBE
:10095000352D422D5A85632D742D862D972D0E949D
:10096000310B822E532E242E5A87362E472E682E78
:10097000792E71E0871691F6552081F6222071F6C6
:10098000552361F6332051F6442041F6662031F6B6
:10099000772021F62A960FB6F894DEBF0FBECDBFA2
:1009A000CF91DF911F910F91FF90EF90DF90CF904B
:1009B000BF90AF909F908F907F906F905F904F907F
:1009C0003F902F9008951F93CF93DF93EC01888180
:1009D000882351F010E01F5F0E941803FE01E10F11
:1009E000F11D80818823B9F7DF91CF911F91089580
:1009F000682F80E00E94ED0681E060E040E00E9408
:100A0000110681E061E040E00E9411060E940103AE
:100A1000089581E00E94F80480EA9FE00197F1F7D1
:100A20000895813029F4862F81580E94F804089592
:100A3000823021F4862F81540E94F8040895EF92A9
:100A4000FF920F931F93CF93DF93F82EE62E8A0128
:100A500080E40E94F804C0E0D0E0F801EC0FFD1F34
:100A600080810E9418032196C830D105B1F78F2DDF
:100A70006E2D0E94110510E0812F0E9418031F5F48
:100A80001830D1F7DF91CF911F910F91FF90EF9028
:100A900008950F931F9380E06FEF0E94DC0681E0C2
:100AA00061E041E00E94830581E062E041E00E9454
:100AB000830581E060E041E00E94830524EF31E09E
:100AC00048EC50E0CA010197F1F721503040D1F7CE
:100AD0008CE30E94F80400ED17E0C8010197F1F7DC
:100AE0008FE00E94F804C8010197F1F781E00E94AD
:100AF000F80480EA9FE00197F1F786E00E94F8048D
:100B00001F910F910895813051F1813038F082307A
:100B100009F446C0833009F083C063C0442321F048
:100B2000413009F07DC00EC0EAE3F0E0208181E0B1
:100B300090E002C0880F991F6A95E2F780958223A2
:100B400080830895EAE3F0E0208181E090E002C034
:100B5000880F991F6A95E2F7282B20830895442374
:100B600021F0413009F05CC00EC0E7E3F0E02081E5
:100B700081E090E002C0880F991F6A95E2F78095A6
:100B8000822380830895E7E3F0E0208181E090E014
:100B900002C0880F991F6A95E2F7282B20830895D9
:100BA000442321F0413009F03BC00EC0E4E3F0E003
:100BB000208181E090E002C0880F991F6A95E2F7DA
:100BC0008095822380830895E4E3F0E0208181E032
:100BD00090E002C0880F991F6A95E2F7282B2083C6
:100BE0000895442319F04130D9F40EC0E1E3F0E058
:100BF000208181E090E002C0880F991F6A95E2F79A
:100C00008095822380830895E1E3F0E0208181E0F4
:100C100090E002C0880F991F6A95E2F7282B208385
:100C20000895813051F1813038F0823009F446C0A6
:100C3000833009F083C063C0442321F0413009F0C0
:100C40007DC00EC0EBE3F0E0208181E090E002C0C7
:100C5000880F991F6A95E2F7809582238083089513
:100C6000EBE3F0E0208181E090E002C0880F991F63
:100C70006A95E2F7282B20830895442321F0413020
:100C800009F05CC00EC0E8E3F0E0208181E090E074
:100C900002C0880F991F6A95E2F7809582238083AE
:100CA0000895E8E3F0E0208181E090E002C0880F41
:100CB000991F6A95E2F7282B20830895442321F099
:100CC000413009F03BC00EC0E5E3F0E0208181E057
:100CD00090E002C0880F991F6A95E2F78095822301
:100CE00080830895E5E3F0E0208181E090E002C098
:100CF000880F991F6A95E2F7282B208308954423D3
:100D000019F04130D9F40EC0E2E3F0E0208181E037
:100D100090E002C0880F991F6A95E2F780958223C0
:100D200080830895E2E3F0E0208181E090E002C05A
:100D3000880F991F6A95E2F7282B20830895813048
:100D4000A1F0813028F08230E9F08330A1F527C08E
:100D5000EBE3F0E0208181E090E002C0880F991F72
:100D60006A95E2F7282720830895E8E3F0E02081E0
:100D700081E090E002C0880F991F6A95E2F728276A
:100D800020830895E5E3F0E0208181E090E002C057
:100D9000880F991F6A95E2F7282720830895E2E3D8
:100DA000F0E0208181E090E002C0880F991F6A95F1
:100DB000E2F7282720830895813049F0813028F018
:100DC000823039F0833041F406C06ABB089567BBB6
:100DD000089564BB089561BB0895813049F0813066
:100DE00028F0823039F0833041F406C06BBB08959F
:100DF00068BB089565BB089562BB0895813069F0B2
:100E0000813028F0823079F08330C1F412C0EBE3F6
:100E1000F0E08081809580830895E8E3F0E08081B0
:100E2000809580830895E5E3F0E08081809580835C
:100E30000895E2E3F0E08081809580830895813019
:100E400081F0813028F08230A9F0833021F51BC079
:100E500089B390E002C0959587956A95E2F7817015
:100E6000089586B390E002C0959587956A95E2F75C
:100E70008170089583B390E002C0959587956A9537
:100E8000E2F78170089580B390E002C09595879550
:100E90006A95E2F781700895813049F0813028F039
:100EA000823039F0833041F406C089B3089586B3A7
:100EB000089583B3089580B308958130C9F18130D6
:100EC00038F0823009F464C0833009F0BFC090C0AC
:100ED000662321F0613009F0B9C015C080E060E000
:100EE00040E00E94830580E061E040E00E948305CD
:100EF00080E062E040E00E94830580E063E040E043
:100F00000E948305089580E060E041E00E9483052F
:100F100080E061E041E00E94830580E062E041E022
:100F20000E94830580E063E041E00E94830508950C
:100F3000662321F0613009F089C015C081E060E0CE
:100F400040E00E94830581E061E040E00E9483056B
:100F500081E062E040E00E94830581E063E040E0E0
:100F60000E948305089581E060E041E00E948305CE
:100F700081E061E041E00E94830581E062E041E0C0
:100F80000E94830581E063E041E00E9483050895AB
:100F9000662321F0613009F059C015C082E060E09D
:100FA00040E00E94830582E061E040E00E9483050A
:100FB00082E062E040E00E94830582E063E040E07E
:100FC0000E948305089582E060E041E00E9483056D
:100FD00082E061E041E00E94830582E062E041E05E
:100FE0000E94830582E063E041E00E94830508954A
:100FF000662319F0613051F515C083E060E040E0F0
:101000000E94830583E061E040E00E94830583E065
:1010100062E040E00E94830583E063E040E00E94DC
:101020008305089583E060E041E00E94830583E04A
:1010300061E041E00E94830583E062E041E00E94BC
:10104000830583E063E041E00E94830508958130D9
:10105000C9F1813038F0823009F464C0833009F07E
:10106000BFC090C0662321F0613009F0B9C015C03F
:1010700080E064E040E00E94830580E065E040E0BD
:101080000E94830580E066E040E00E94830580E0E6
:1010900067E040E00E948305089580E064E041E05D
:1010A0000E94830580E065E041E00E94830580E0C6
:1010B00066E041E00E94830580E067E041E00E9435
:1010C00083050895662321F0613009F089C015C0B9
:1010D00081E064E040E00E94830581E065E040E05B
:1010E0000E94830581E066E040E00E94830581E084
:1010F00067E040E00E948305089581E064E041E0FC
:101100000E94830581E065E041E00E94830581E063
:1011100066E041E00E94830581E067E041E00E94D3
:1011200083050895662321F0613009F059C015C088
:1011300082E064E040E00E94830582E065E040E0F8
:101140000E94830582E066E040E00E94830582E021
:1011500067E040E00E948305089582E064E041E09A
:101160000E94830582E065E041E00E94830582E001
:1011700066E041E00E94830582E067E041E00E9472
:1011800083050895662319F0613051F515C083E099
:1011900064E040E00E94830583E065E040E00E9457
:1011A000830583E066E040E00E94830583E067E01A
:1011B00040E00E948305089583E064E041E00E94DE
:1011C000830583E065E041E00E94830583E066E0FB
:1011D00041E00E94830583E067E041E00E948305CF
:1011E00008956F70813081F0813028F08230A9F04D
:1011F000833021F51BC0EBE3F0E08081807F8083AA
:101200008081862B80830895E8E3F0E08081807FF1
:1012100080838081862B80830895E5E3F0E08081E0
:10122000807F80838081862B80830895E2E3F0E0D5
:101230008081807F80838081862B80830895629562
:10124000607F813081F0813028F08230A9F08330D6
:1012500021F51BC0EBE3F0E080818F7080838081FB
:10126000862B80830895E8E3F0E080818F7080838F
:101270008081862B80830895E5E3F0E080818F7084
:1012800080838081862B80830895E2E3F0E0808173
:101290008F7080838081862B808308959C01ECE38E
:1012A000F0E0808181FDFDCF3FBB2EBB6DBBE29A9C
:1012B000E19A0895DF92EF92FF920F931F93CF93DD
:1012C000DF937C01D62E8A01662371F0C0E0D0E066
:1012D000F801EC0FFD1FCE018E0D9F1D60810E9455
:1012E0004E092196CD15A0F3DF91CF911F910F915B
:1012F000FF90EF90DF9008959C01DB01ECE3F0E0BC
:10130000808181FDFDCF3FBB2EBBECE3F0E080810F
:10131000816080838DB38C930895DF92EF92FF926A
:101320000F931F93CF93DF937C01D62E8A01662300
:1013300069F0C0E0D0E0B8016C0F7D1FCE018E0DCA
:101340009F1D0E947C092196CD15A8F3DF91CF91B6
:101350001F910F91FF90EF90DF900895EFE5F0E07F
:101360008081806880830895EFE5F0E080818F7749
:1013700080830895CF93DF93EC01009711F480E010
:1013800029C0EDE2F0E01082AEE2B0E01C92808174
:101390008F7B8083208188819E81892B822B9C81F9
:1013A000892B9885892B9A85892B808330818A8126
:1013B0009B81282F2370232B20832C919695879532
:1013C000969587958170822B8C9380819C85892B43
:1013D000808381E0DF91CF910895DC01009711F4C3
:1013E00080E00895EDE2F0E0108280818F7B8083C1
:1013F00020818C9114969C911497892B822B1296A4
:101400009C911297892B16969C911697892B18966A
:101410009C911897892B808380811A969C91892BA7
:10142000808381E008958FB9EEE2F0E08081882327
:10143000ECF78FB10895DC01009791F1E3E5F0E05E
:1014400080819C91892B11969C911197892B1496E0
:101450009C911497892B8083E9E5F0E080811296B6
:101460009C911297892B13969C911397892B8083BB
:1014700015968D919C911697009711F420E005C068
:1014800090930F0280930E0221E017968D919C910C
:101490001897009729F090930D0280930C0201C0D9
:1014A00020E0822F08958CBF089582BF0895FC012B
:1014B000009711F480E0089582B7808381E0089559
:1014C0001F920F920FB60F9211242F933F934F93B9
:1014D0005F936F937F938F939F93AF93BF93EF939C
:1014E000FF93E0910E02F0910F02309709F00995F9
:1014F000FF91EF91BF91AF919F918F917F916F91EC
:101500005F914F913F912F910F900FBE0F901F90C1
:1015100018951F920F920FB60F9211242F933F939D
:101520004F935F936F937F938F939F93AF93BF93EB
:10153000EF93FF93E0910C02F0910D02309709F0C8
:101540000995FF91EF91BF91AF919F918F917F91FD
:101550006F915F914F913F912F910F900FBE0F9020
:101560001F901895EF92FF920F93DF93CF93CDB713
:10157000DEB760970FB6F894DEBF0FBECDBFA82FC1
:10158000002309F461C07E010894E11CF11C88E08D
:10159000F70111928A95E9F729833A834B835C839B
:1015A0006D837E83AF83988780E2801BE82FFF27BF
:1015B000E7FDF09549815A816B817C81181684F092
:1015C00019861A861B861C86882799278E1B9F0BD7
:1015D00004C0440F551F661F771F8A95D2F728C095
:1015E000202F332727FD3095DB01CA01022E04C0CE
:1015F000880F991FAA1FBB1F0A94D2F789879A8761
:10160000AB87BC8704C07695679557954795EA9553
:10161000D2F78D819E81AF81B88504C0880F991F54
:10162000AA1FBB1F2A95D2F7482B592B6A2B7B2B5D
:101630004D875E876F87788B29853A854B855C85DA
:101640006D857E85AF8598898A2F60960FB6F89450
:10165000DEBF0FBECDBFCF91DF910F91FF90EF9016
:101660000895AEE5B0E0E7E3FBE00C945A18A8E07B
:101670004E010894811C911CF4016A2E11926A9407
:10168000E9F729833A834B835C836D837E838F8361
:101690009887CE010996FC011192AA95E9F7A986CF
:1016A000BA86CB86DC86ED86FE860F87188B29846A
:1016B0003A844B845C84ED84FE840F8518896980AC
:1016C0007A808B809C806DA67EA68FA698AA6D805E
:1016D0007E808F809884E114F1040105110509F0E2
:1016E000B3C3621473048404950408F03DC100E0A0
:1016F000201600E0300601E0400600E0500688F4C5
:101700001FEF211631044104510439F030F048E054
:10171000E42EF12C012D112D18C0EE24FF24870199
:1017200014C020E0221620E0320620E0420621E02C
:10173000520630F038E1E32EF12C012D112D05C0B9
:1017400020E1E22EF12C012D112DD201C1010E2C30
:1017500004C0B695A795979587950A94D2F7845FAC
:101760009E4FDC012C9180E290E0A0E0B0E08E1969
:101770009F09A00BB10B7C018D01E21AF108010950
:101780001109E114F10401051105A1F10E2C04C0A9
:10179000220C331C441C551C0A94D2F7A40193015B
:1017A0000E2C04C0220F331F441F551F0A94D2F77A
:1017B00080E290E08E199F096DA47EA48FA498A862
:1017C00004C096948794779467948A95D2F7622A96
:1017D000732A842A952AADA4BEA4CFA4D8A804C095
:1017E000AA0CBB1CCC1CDD1CEA94D2F7ADA6BEA68D
:1017F000CFA6D8AA6201EE24FF24CDAADEAAEFAAC2
:10180000F8AE920181012070307009AF1AAF2BAF92
:101810003CAFC401B301A70196010E9438187B01B7
:101820008C01C401B3012DA93EA94FA958AD0E9456
:101830003818C901DA013C014D01C401B30129ADD9
:101840003AAD4BAD5CAD0E9419189B01AC0187010C
:10185000FF24EE24ADA4BEA4CFA4D8A8C601AA2715
:10186000BB2757016801A82AB92ACA2ADB2AA2166F
:10187000B306C406D506E0F408946108710881082F
:101880009108A20CB31CC41CD51CA214B304C4043C
:10189000D50470F0A216B306C406D50648F4089421
:1018A0006108710881089108A20CB31CC41CD51CE6
:1018B000A21AB30AC40AD50AC601B5012DA93EA9C8
:1018C0004FA958AD0E9438187B018C01C601B501A3
:1018D0002DA93EA94FA958AD0E943818C901DA01B7
:1018E0005C016D01C601B50129AD3AAD4BAD5CADF2
:1018F0000E9419189B01AC018701FF24EE248DA5DD
:101900009EA5AFA5B8A9A070B070E82AF92A0A2B45
:101910001B2BE216F30604071507C0F40894A10870
:10192000B108C108D108E20CF31C041D151DE21416
:10193000F3040405150550F0E216F3060407150735
:1019400028F40894A108B108C108D108D301992747
:10195000882786017501E82AF92A0A2B1B2BE9AA98
:10196000FAAA0BAB1CABCFC42114310441045104BF
:1019700071F461E070E080E090E020E030E040E071
:1019800050E00E943818C901DA011C012D0100E065
:10199000201600E0300601E0400600E0500688F422
:1019A0001FEF211631044104510431F028F048E0C2
:1019B00050E060E070E017C040E050E060E070E0B0
:1019C00012C020E0221620E0320620E0420621E08C
:1019D000520628F048E150E060E070E004C040E1C9
:1019E00050E060E070E0D201C101042E04C0B69561
:1019F000A795979587950A94D2F7845F9E4FDC014F
:101A00002C91E0E2EE2EF12C012D112DD801C70111
:101A1000841B950BA60BB70B821B9109A109B10979
:101A20000097A105B10561F464015301A218B30840
:101A3000C408D50831E0632E712C812C912C1EC175
:101A40006F968FAF6F97082E04C0220C331C441C76
:101A5000551C0A94D2F7EE2DE81B640153010E2E9B
:101A600004C0D694C794B794A7940A94D2F7A4015B
:101A700093016F960FAC6F9704C0220F331F441F62
:101A8000551F0A94D2F76DA47EA48FA498A80E2E99
:101A900004C096948794779467940A94D2F784014B
:101AA0007301E22AF32A042B152BE9A6FAA60BA749
:101AB0001CA7320188249924920181012070307082
:101AC00021960CAF1DAF2EAF3FAF2197C601B501D8
:101AD000A40193010E9438187B018C01C601B50155
:101AE000A40193010E943818C901DA0125968CAF30
:101AF0009DAFAEAFBFAF2597BC01CD0121962CADF8
:101B00003DAD4EAD5FAD21970E9419189B01AC0110
:101B10008701FF24EE24A9A4BAA4CBA4DCA4C601A7
:101B2000AA27BB275C016D01AE28BF28C02AD12A95
:101B3000A216B306C406D50660F525966CAD7DAD3C
:101B40008EAD9FAD259761507040804090402596A6
:101B50006CAF7DAF8EAF9FAF2597A20CB31CC41C9A
:101B6000D51CA214B304C404D50498F0A216B3067D
:101B7000C406D50670F461507040804090402596B0
:101B80006CAF7DAF8EAF9FAF2597A20CB31CC41C6A
:101B9000D51CA21AB30AC40AD50AC601B501A4010C
:101BA00093010E9438187B018C01C601B501A40184
:101BB00093010E943818C901DA013C014D01C401AA
:101BC000B30121962CAD3DAD4EAD5FAD21970E9486
:101BD00019189B01AC018701FF24EE2489A59AA561
:101BE000ABA5BCA5A070B07057016801A82AB92A9E
:101BF000CA2ADB2AA216B306C406D506E0F4089466
:101C00006108710881089108A20CB31CC41CD51C82
:101C1000A214B304C404D50470F0A216B306C4061B
:101C2000D50648F408946108710881089108A20C4F
:101C3000B31CC41CD51C8DA59EA5AFA5B8A96F96D5
:101C40000FAC6F9704C0880F991FAA1FBB1F0A947F
:101C5000D2F78DA79EA7AFA7B8ABA21AB30AC40A42
:101C6000D50A2596ECACFDAC0EAD1FAD2597D7017E
:101C700099278827682A792A8A2A9B2A820122277B
:101C8000332729960CAF1DAF2EAF3FAF2997A20186
:101C90009101407050702D962CAF3DAF4EAF5FAFAD
:101CA0002D97C601B50129962CAD3DAD4EAD5FAD6A
:101CB00029970E9438187B018C01C601B50129962D
:101CC0002CAD3DAD4EAD5FAD29970E943818C901CE
:101CD000DA0161968CAF9DAFAEAFBFAF6197BC012B
:101CE000CD012D962CAD3DAD4EAD5FAD2D970E9433
:101CF00019189B01AC018701FF24EE24ADA4BEA4FA
:101D0000CFA4D8A8C601AA27BB2757016801A82AD3
:101D1000B92ACA2ADB2AA216B306C406D50660F57C
:101D200061966CAD7DAD8EAD9FAD61976150704099
:101D30008040904061966CAF7DAF8EAF9FAF619752
:101D4000A20CB31CC41CD51CA214B304C404D50437
:101D500098F0A216B306C406D50670F46150704020
:101D60008040904061966CAF7DAF8EAF9FAF619722
:101D7000A20CB31CC41CD51CA21AB30AC40AD50AEF
:101D8000C601B50129962CAD3DAD4EAD5FAD29978D
:101D90000E9438187B018C01C601B50129962CAD33
:101DA0003DAD4EAD5FAD29970E943818C901DA01EB
:101DB0005C016D01C601B5012D962CAD3DAD4EAD5A
:101DC0005FAD2D970E9419189B01AC018701FF247C
:101DD000EE248DA59EA5AFA5B8A9A070B070E82A85
:101DE000F92A0A2B1B2BE216F30604071507C0F489
:101DF0000894A108B108C108D108E20CF31C041D25
:101E0000151DE214F3040405150550F0E216F3065F
:101E10000407150728F40894A108B108C108D108DF
:101E20006196ECACFDAC0EAD1FAD6197D701992763
:101E3000882796018501082B192B2A2B3B2B09ABF0
:101E40001AAB2BAB3CAB62C26E147F0480069106CA
:101E500008F451C220E0E21620E0F20621E0020779
:101E600020E0120788F43FEFE316F10401051105A5
:101E700031F028F048E050E060E070E017C040E04A
:101E800050E060E070E012C040E0E41640E0F4068C
:101E900040E0040741E0140728F048E150E060E02A
:101EA00070E004C040E150E060E070E0D801C7019C
:101EB000042E04C0B695A795979587950A94D2F7F6
:101EC000845F9E4FDC012C9130E2A32EB12CC12CFB
:101ED000D12CD601C501841B950BA60BB70B821B19
:101EE0009109A109B1090097A105B10589F4E6148A
:101EF000F7040805190508F4F2C16DA47EA48FA4A7
:101F000098A8621473048404950408F0E8C1F3C12E
:101F10006E968FAF6E97082E04C0EE0CFF1C001F4C
:101F2000111F0A94D2F76A2D681BD201C101062E37
:101F300004C0B695A795979587950A94D2F75C014A
:101F40006D01AE28BF28C02AD12AADA2BEA2CFA261
:101F5000D8A6720161016E960FAC6E9704C0CC0CCE
:101F6000DD1CEE1CFF1C0A94D2F7C9A2DAA2EBA278
:101F7000FCA264015301062E04C0D694C794B79402
:101F8000A7940A94D2F7D401C3016E960FAC6E9752
:101F900004C0880F991FAA1FBB1F0A94D2F7EDA493
:101FA000FEA40FA518A904C016950795F794E79409
:101FB0006A95D2F737014801682A792A8A2A9B2A2A
:101FC0006D8E7E8E8F8E98A2EDA0FEA00FA118A51B
:101FD0003801882499249801870120703070659613
:101FE0000CAF1DAF2EAF3FAF6597C601B501A40181
:101FF00093010E9438187B018C01C601B501A40130
:1020000093010E943818C901DA011C012D01C20197
:10201000B10165962CAD3DAD4EAD5FAD65970E94AB
:1020200019189B01AC018701FF24EE24AD8CBE8CF6
:10203000CF8CD8A0C601AA27BB2757016801A82AC0
:10204000B92ACA2ADB2AA216B306C406D50600F5A9
:1020500008942108310841085108EDA0FEA00FA105
:1020600018A5AE0CBF1CC01ED11EAE14BF04C00606
:10207000D10670F0A216B306C406D50648F408943B
:102080002108310841085108AE0CBF1CC01ED11EEA
:10209000A21AB30AC40AD50AC601B501A401930164
:1020A0000E9438187B018C01C601B501A40193017F
:1020B0000E943818C901DA013C014D01C401B30185
:1020C00065962CAD3DAD4EAD5FAD65970E9419187C
:1020D0009B01AC018701FF24EE248D8D9E8DAF8D79
:1020E000B8A1A070B07057016801A82AB92ACA2AFD
:1020F000DB2AA216B306C406D50600F508946108CB
:102100007108810891086DA17EA18FA198A5A60EE6
:10211000B71EC81ED91EA616B706C806D90670F087
:10212000A216B306C406D50648F4089461087108DF
:1021300081089108A60EB71EC81ED91ED601C5017A
:10214000821B930BA40BB50B898F9A8FAB8FBC8F1F
:10215000D1019927882764015301A82AB92ACA2ADC
:10216000DB2AA9AABAAACBAADCAA860175012FEF9D
:102170003FEF40E050E0E222F32204231523A601C2
:10218000662777276D964CAF5DAF6EAF7FAF6D97CB
:10219000A9A0BAA0CBA0DCA06FEF7FEF80E090E019
:1021A000A622B722C822D92289A19AA1ABA1BCA19B
:1021B0001D0144245524C801B701A60195010E94C0
:1021C000191869966CAF7DAF8EAF9FAF6997C80144
:1021D000B701A20191010E9419183B014C016D96B3
:1021E0006CAD7DAD8EAD9FAD6D97A60195010E9442
:1021F00019187B018C016D966CAD7DAD8EAD9FADD8
:102200006D97A20191010E9419185B016C01A80150
:102210009701260D371D481D591D69966CAC7DAC84
:102220008EAC9FAC6997C401AA27BB27280F391F22
:102230004A1F5B1F2E153F054007510748F4E12C4C
:10224000F12C61E0062F112DAE0CBF1CC01ED11E5B
:10225000CA01AA27BB27BC01CD016A0D7B1D8C1DBD
:102260009D1D698C7A8C8B8C9C8C661677068806F3
:10227000990640F1661577058805990509F043C070
:10228000D9019927882769962CAD3DAD4EAD5FAD3C
:10229000699740705070820F931FA41FB51F2DA522
:1022A0003EA54FA558A96E960FAC6E9704C0220F9D
:1022B000331F441F551F0A94D2F7281739074A07BE
:1022C0005B0708F509A91AA92BA93CA901501040E0
:1022D0002040304009AB1AAB2BAB3CAB14C066249A
:1022E0007724430121E030E040E050E029AB3AABF5
:1022F0004BAB5CAB0BC066247724430119AA1AAA26
:102300001BAA1CAA03C0662477244301FE01719610
:1023100088E0DF011D928A95E9F7A9A8BAA8CBA8A1
:10232000DCA8A98ABA8ACB8ADC8A6D8A7E8A8F8ADF
:10233000988E29A93A894B895C89662D7E898F8977
:10234000988DC25ADF4FE2E10C947618ABE5B0E00D
:10235000ECEAF1E10C945A18A8E04E010894811CB3
:10236000911CF4016A2E11926A94E9F729833A8349
:102370004B835C836D837E838F839887CE01099620
:10238000FC011192AA95E9F7A986BA86CB86DC866C
:10239000ED86FE860F87188B29843A844B845C84F3
:1023A000AD84BE84CF84D88829813A814B815C81F9
:1023B00069962FAF69976A963FAF6A976B964FAF52
:1023C0006B976C965FAF6C976C966CAC7DAC8EAC7B
:1023D0009FAC6C9769AA7AAA8BAA9CAA6D817E8110
:1023E0008F8198853B014C016DAA7EAA8FAA98AE79
:1023F000A114B104C104D10409F004C3621473042C
:102400008404950408F000C100E0201600E03006C6
:1024100001E0400600E0500688F41FEF2116310469
:102420004104510439F030F088E0E82EF12C012D00
:10243000112D18C0EE24FF24870114C040E024169B
:1024400040E0340640E0440641E0540630F0B8E194
:10245000EB2EF12C012D112D05C0A0E1EA2EF12C5F
:10246000012D112DD201C1010E2C04C0B695A795E6
:10247000979587950A94D2F7845F9E4FDC012C9143
:1024800080E290E0A0E0B0E08E199F09A00BB10BB4
:102490005C016D01A21AB108C108D108A9AEBAAE9B
:1024A000CBAEDCAEA114B104C104D10409F43FC029
:1024B00069AD062E04C0220C331C441C551C0A9422
:1024C000D2F7A4019301062E04C0220F331F441F2C
:1024D000551F0A94D2F780E290E08A199B096C9606
:1024E000CCACDDACEEACFFAC6C9704C0F694E794DA
:1024F000D794C7948A95D2F787017601E22AF32A06
:10250000042B152BEDAAFEAA0FAB18AF6C968CAD61
:102510009DADAEADBFAD6C9704C0880F991FAA1FCB
:10252000BB1F6A95D2F789AB9AABABABBCAB3201A0
:1025300088249924B201A1016070707021964CAF7B
:102540005DAF6EAF7FAF21976DA97EA98FA998ADC2
:10255000A40193010E9438187B018C016DA97EA90A
:102560008FA998ADA40193010E943818CA01B9013E
:1025700021962CAD3DAD4EAD5FAD21970E9419184F
:102580009B01AC018701FF24EE24A9A8BAA8CBA81F
:10259000DCA8C601AA27BB2757016801A82AB92AC7
:1025A000CA2ADB2AA216B306C406D50690F4A20CEA
:1025B000B31CC41CD51CA214B304C404D50448F035
:1025C000A216B306C406D50620F4A20CB31CC41C84
:1025D000D51CA21AB30AC40AD50AC601B501A401C2
:1025E00093010E9438187B018C01C601B501A4013A
:1025F00093010E943818CA01B90121962CAD3DAD56
:102600004EAD5FAD2197BAC121143104410451048C
:1026100071F461E070E080E090E020E030E040E0C4
:1026200050E00E943818C901DA011C012D0100E0B8
:10263000201600E0300601E0400600E0500688F475
:102640001FEF211631044104510439F030F068E0E5
:10265000E62EF12C012D112D18C0EE24FF24870148
:1026600014C040E0241640E0340640E0440641E057
:10267000540630F058E1E52EF12C012D112D05C046
:1026800040E1E42EF12C012D112DD201C1010E2CBF
:1026900004C0B695A795979587950A94D2F7845F5D
:1026A0009E4FDC012C9130E2A32EB12CC12CD12CF9
:1026B000D601C5018E199F09A00BB10B7C018D01BC
:1026C000E21AF10801091109E9AEFAAE0BAF1CAF2D
:1026D000E114F1040105110539F464015301A21854
:1026E000B308C408D508E2C0F9AC6896FFAE689795
:1026F0000F2C04C0220C331C441C551C0A94D2F726
:102700008A2D8F1964015301082E04C0D694C794F2
:10271000B794A7940A94D2F7A401930104C0220F9E
:10272000331F441F551FFA94D2F76C966CAC7DACE6
:102730008EAC9FAC6C9704C0969487947794679402
:102740008A95D2F784017301E22AF32A042B152B10
:10275000EDA6FEA60FA718AB320188249924B2017A
:10276000A1016070707025964CAF5DAF6EAF7FAF0A
:102770002597C601B501A40193010E9438187B0179
:102780008C01C601B501A40193010E943818CA0149
:10279000B90125962CAD3DAD4EAD5FAD25970E949C
:1027A00019189B01AC018701FF24EE24ADA4BEA43F
:1027B000CFA4D8A8C601AA27BB275C016D01AE280B
:1027C000BF28C02AD12AA216B306C406D50690F4A3
:1027D000A20CB31CC41CD51CA214B304C404D5049D
:1027E00048F0A216B306C406D50620F4A20CB31C0A
:1027F000C41CD51CA21AB30AC40AD50AC601B50165
:10280000A40193010E9438187B018C01C601B50117
:10281000A40193010E943818CA01B90125962CAD74
:102820003DAD4EAD5FAD25970E9419189B01AC01DF
:102830008701FF24EE248DA59EA5AFA5B8A9A070A1
:10284000B07057016801A82AB92ACA2ADB2AA21641
:10285000B306C406D50690F4A20CB31CC41CD51C48
:10286000A214B304C404D50448F0A216B306C406E7
:10287000D50620F4A20CB31CC41CD51C6C96ECAC81
:10288000FDAC0EAD1FAD6C9768960FAC689704C099
:10289000EE0CFF1C001F111F0A94D2F7E9AAFAAA36
:1028A0000BAB1CABA21AB30AC40AD50A32018824A6
:1028B0009924B201A1016070707029964CAF5DAF90
:1028C0006EAF7FAF2997C601B501A40193010E94A5
:1028D00038187B018C01C601B501A40193010E9447
:1028E0003818CA01B90129962CAD3DAD4EAD5FAD8A
:1028F00029970E9419189B01AC018701FF24EE243F
:10290000A9A8BAA8CBA8DCA8C601AA27BB2757014B
:102910006801A82AB92ACA2ADB2AA216B306C40665
:10292000D50690F4A20CB31CC41CD51CA214B3048D
:10293000C404D50448F0A216B306C406D50620F494
:10294000A20CB31CC41CD51CA21AB30AC40AD50A13
:10295000C601B501A40193010E9438187B018C01C6
:10296000C601B501A40193010E943818CA01B9013A
:1029700029962CAD3DAD4EAD5FAD29970E9419183B
:102980009B01AC018701FF24EE2489A99AA9ABA978
:10299000BCA9A070B070E82AF92A0A2B1B2BE216FA
:1029A000F3060407150790F4E20CF31C041D151D33
:1029B000E214F3040405150548F0E216F3060407D3
:1029C000150720F4E20CF31C041D151DE21AF30A8E
:1029D000040B150BD801C70109AC04C0B695A79527
:1029E000979587950A94D2F7898B9A8BAB8BBC8B82
:1029F0001D8A1E8A1F8A188E282F3A894B895C8966
:102A00006D890CC36A147B048C049D0408F409C30B
:102A100000E0A01600E0B00601E0C00600E0D0062D
:102A200088F41FEFA116B104C104D10439F030F0CD
:102A300028E0E22EF12C012D112D18C0EE24FF24E8
:102A4000870114C040E0A41640E0B40640E0C4068C
:102A500041E0D40630F098E1E92EF12C012D112D42
:102A600005C080E1E82EF12C012D112DD601C50104
:102A70000E2C04C0B695A795979587950A94D2F722
:102A8000845F9E4FDC012C9180E290E0A0E0B0E0FA
:102A90008E199F09A00BB10B821B9109A109B109E5
:102AA0000097A105B10509F04FC0A614B704C804EA
:102AB000D90458F06C96ECACFDAC0EAD1FAD6C9724
:102AC000E214F3040405150568F16C96ECACFDAC5A
:102AD0000EAD1FAD6C97E218F30804091509A401A7
:102AE00093012A193B094C095D09AA24BB246501FD
:102AF0006C966CAD7DAD8EAD9FAD6C976E157F0500
:102B00008007910728F4B1E0AB2EB12CC12CD12C59
:102B1000DA01C9018A199B09AC09BD098DAB9EABCD
:102B2000AFABB8AFE98AFA8A0B8B1C8B6DA87EA875
:102B30008FA898AC6D8A7E8A8F8A988E2E2D3A89BE
:102B40004B895C896DA96AC267968FAF6797A601AA
:102B50009501082E04C0220F331F441F551F0A94ED
:102B6000D2F7A0E2AA2EA81A6696AFAE6697D20157
:102B7000C10104C0B695A79597958795AA94D2F7F9
:102B80006C017D01C22AD32AE42AF52AC9A6DAA655
:102B9000EBA6FCA68201710167960FAC679704C093
:102BA000EE0CFF1C001F111F0A94D2F7EDA2FEA22B
:102BB0000FA318A76401530166960FAC669704C073
:102BC000D694C794B794A7940A94D2F7A40193011A
:102BD00067960FAC679704C0220F331F441F551F21
:102BE0000A94D2F76C968CAD9DADAEADBFAD6C972F
:102BF00066960FAC669704C0B695A795979587958E
:102C00000A94D2F73C014D01622A732A842A952A3C
:102C100069A27AA28BA29CA26C96ECACFDAC0EAD24
:102C20001FAD6C9767960FAC679704C0EE0CFF1C46
:102C3000001F111F0A94D2F7ED8EFE8E0F8F18A37E
:102C400049A55AA56BA57CA53B01882499246070F1
:102C500070702D964CAF5DAF6EAF7FAF2D97C601F4
:102C6000B501A40193010E9438187B018C01C601B3
:102C7000B501A40193010E943818C901DA011C01B1
:102C80002D01C201B1012D962CAD3DAD4EAD5FAD14
:102C90002D970E9419189B01AC018701FF24EE2497
:102CA000A9A0BAA0CBA0DCA0C601AA27BB275701C8
:102CB0006801A82AB92ACA2ADB2AA216B306C406C2
:102CC000D50600F508942108310841085108E9A407
:102CD000FAA40BA51CA5AE0CBF1CC01ED11EAE14C1
:102CE000BF04C006D10670F0A216B306C406D5060E
:102CF00048F408942108310841085108AE0CBF1C63
:102D0000C01ED11EA21AB30AC40AD50AC601B50153
:102D1000A40193010E9438187B018C01C601B50102
:102D2000A40193010E943818C901DA013C014D0148
:102D3000C401B3012D962CAD3DAD4EAD5FAD2D97C9
:102D40000E9419189B01AC018701FF24EE2489A180
:102D50009AA1ABA1BCA1A070B07057016801A82ACC
:102D6000B92ACA2ADB2AA216B306C406D50600F57C
:102D70000894610871088108910869A57AA58BA556
:102D80009CA5A60EB71EC81ED91EA616B706C80655
:102D9000D90670F0A216B306C406D50648F4089406
:102DA0006108710881089108A60EB71EC81ED91EB9
:102DB000D601C501821B930BA40BB50B898F9A8F8B
:102DC000AB8FBC8FD1019927882784017301E82A32
:102DD000F92A0A2B1B2B4FEFA42E4FEFB42EC12C38
:102DE000D12CAE20BF20C022D1227801002711278C
:102DF0006DA07EA08FA098A44FEF5FEF60E070E021
:102E000064227522862297228DA19EA1AFA1B8A52A
:102E1000BD018827992765966CAF7DAF8EAF9FAFB8
:102E20006597C601B501A40193010E941918619626
:102E30006CAF7DAF8EAF9FAF6197C601B501659650
:102E40002CAD3DAD4EAD5FAD65970E9419181B01CD
:102E50002C01C801B701A40193010E9419185B015C
:102E60006C01C801B70165962CAD3DAD4EAD5FADAF
:102E700065970E9419187B018C01A6019501220D0E
:102E8000331D441D551D61966CAC7DAC8EAC9FAC62
:102E90006197C401AA27BB27280F391F4A1F5B1F50
:102EA0002A153B054C055D0548F4812C912CE1E089
:102EB000AE2EB12CE80CF91C0A1D1B1DCA01AA2755
:102EC000BB2757016801A80EB91ECA1EDB1EA90147
:102ED0003327222761968CAD9DADAEADBFAD619716
:102EE000A070B070280F391F4A1F5B1FE98CFA8C45
:102EF0000B8D1C8DEA14FB040C051D0570F0AE143F
:102F0000BF04C006D10669F56D8D7E8D8F8D98A1A9
:102F1000621773078407950720F5DA01C9016DA0D0
:102F20007EA08FA098A486199709A809B909E9A4D9
:102F3000FAA40BA51CA5AE18BF08C00AD10AEE243E
:102F4000FF248701281739074A075B0728F421E087
:102F5000E22EF12C012D112DAE18BF08C00AD10AA6
:102F600002C0DA01C9016D8C7E8C8F8C98A0681A22
:102F7000790A8A0A9B0A498D5A8D6B8D7C8D4A1974
:102F80005B096C097D095A016B012224332421015C
:102F90006D8D7E8D8F8D98A16615770588059905B5
:102FA00028F481E0282E312C412C512C860175010A
:102FB000E218F30804091509A801970166960FACF9
:102FC000669704C0220F331F441F551F0A94D2F77F
:102FD000D401C30167960FAC679704C0B695A79557
:102FE000979587950A94D2F7282B392B4A2B5B2B80
:102FF000298B3A8B4B8B5C8B67960FAC679704C021
:1030000016950795F794E7940A94D2F7ED8AFE8A0D
:103010000F8B188F3A894B895C896E2D7E898F8939
:10302000988DC55ADF4FE2E10C947618F8940C9411
:103030009118629FD001739FF001829FE00DF11DF6
:10304000649FE00DF11D929FF00D839FF00D749F22
:10305000F00D659FF00D9927729FB00DE11DF91FCE
:10306000639FB00DE11DF91FBD01CF01112408952B
:10307000A1E21A2EAA1BBB1BFD010DC0AA1FBB1F7C
:10308000EE1FFF1FA217B307E407F50720F0A21BEE
:10309000B30BE40BF50B661F771F881F991F1A945B
:1030A00069F760957095809590959B01AC01BD0185
:1030B000CF0108952F923F924F925F926F927F922D
:1030C0008F929F92AF92BF92CF92DF92EF92FF9238
:1030D0000F931F93CF93DF93CDB7DEB7CA1BDB0BE4
:1030E0000FB6F894DEBF0FBECDBF09942A88398889
:1030F00048885F846E847D848C849B84AA84B98490
:10310000C884DF80EE80FD800C811B81AA81B9819B
:10311000CE0FD11D0FB6F894DEBF0FBECDBFED01AF
:063120000895F894FFCFB2
:1031260057656C636F6D6520746F206F7572005301
:10313600797374656D004C6F67696E20666F7220D7
:1031460066697273740054696D6500536574205026
:10315600617373776F726400506173733A005061E4
:103166007373776F726420536176656400506C7A6E
:103176002C456E74657220506173730057656C63DD
:103186006F6D652E2E0057726F6E672050617373D8
:10319600576F72642E2E0054727920616761696ED2
:1031A60020004E6F206D6F72652074726965730022
:1031B600776169742032302073656300373839418E
:1031C600343536423132334345304344000102023E
:1031D60003030303040404040404040405050505A9
:1031E6000505050505050505050505050606060685
:1031F6000606060606060606060606060606060669
:103206000606060606060606060606060707070754
:103216000707070707070707070707070707070738
:103226000707070707070707070707070707070728
:103236000707070707070707070707070707070718
:103246000707070707070707070707070808080804
:1032560008080808080808080808080808080808E8
:1032660008080808080808080808080808080808D8
:1032760008080808080808080808080808080808C8
:1032860008080808080808080808080808080808B8
:1032960008080808080808080808080808080808A8
:1032A6000808080808080808080808080808080898
:1032B6000808080808080808080808080808080888
:0C32C6000808080808080808080808089C
:00000001FF
